{
  "_format": "hh-sol-artifact-1",
  "contractName": "SupplyChain",
  "sourceName": "contracts/SupplyChain.sol",
  "abi": [
    {
      "inputs": [],
      "stateMutability": "nonpayable",
      "type": "constructor"
    },
    {
      "anonymous": false,
      "inputs": [
        {
          "indexed": true,
          "internalType": "string",
          "name": "batchId",
          "type": "string"
        },
        {
          "indexed": true,
          "internalType": "address",
          "name": "farmer",
          "type": "address"
        },
        {
          "indexed": false,
          "internalType": "string",
          "name": "ipfsCID",
          "type": "string"
        },
        {
          "indexed": false,
          "internalType": "uint256",
          "name": "timestamp",
          "type": "uint256"
        }
      ],
      "name": "BatchCreated",
      "type": "event"
    },
    {
      "anonymous": false,
      "inputs": [
        {
          "indexed": true,
          "internalType": "string",
          "name": "batchId",
          "type": "string"
        },
        {
          "indexed": false,
          "internalType": "enum SupplyChain.BatchState",
          "name": "previousState",
          "type": "uint8"
        },
        {
          "indexed": false,
          "internalType": "enum SupplyChain.BatchState",
          "name": "newState",
          "type": "uint8"
        },
        {
          "indexed": false,
          "internalType": "uint256",
          "name": "timestamp",
          "type": "uint256"
        }
      ],
      "name": "BatchStateChanged",
      "type": "event"
    },
    {
      "anonymous": false,
      "inputs": [
        {
          "indexed": true,
          "internalType": "string",
          "name": "batchId",
          "type": "string"
        },
        {
          "indexed": true,
          "internalType": "address",
          "name": "handler",
          "type": "address"
        },
        {
          "indexed": false,
          "internalType": "string",
          "name": "location",
          "type": "string"
        },
        {
          "indexed": false,
          "internalType": "string",
          "name": "gpsLat",
          "type": "string"
        },
        {
          "indexed": false,
          "internalType": "string",
          "name": "gpsLong",
          "type": "string"
        },
        {
          "indexed": false,
          "internalType": "uint256",
          "name": "timestamp",
          "type": "uint256"
        }
      ],
      "name": "CheckpointLogged",
      "type": "event"
    },
    {
      "anonymous": false,
      "inputs": [
        {
          "indexed": true,
          "internalType": "address",
          "name": "account",
          "type": "address"
        },
        {
          "indexed": false,
          "internalType": "enum SupplyChain.Role",
          "name": "role",
          "type": "uint8"
        }
      ],
      "name": "RoleGranted",
      "type": "event"
    },
    {
      "inputs": [],
      "name": "admin",
      "outputs": [
        {
          "internalType": "address",
          "name": "",
          "type": "address"
        }
      ],
      "stateMutability": "view",
      "type": "function"
    },
    {
      "inputs": [
        {
          "internalType": "string",
          "name": "",
          "type": "string"
        }
      ],
      "name": "batchExists",
      "outputs": [
        {
          "internalType": "bool",
          "name": "",
          "type": "bool"
        }
      ],
      "stateMutability": "view",
      "type": "function"
    },
    {
      "inputs": [
        {
          "internalType": "string",
          "name": "",
          "type": "string"
        }
      ],
      "name": "batches",
      "outputs": [
        {
          "internalType": "string",
          "name": "batchId",
          "type": "string"
        },
        {
          "internalType": "address",
          "name": "farmerAddress",
          "type": "address"
        },
        {
          "internalType": "string",
          "name": "ipfsCID",
          "type": "string"
        },
        {
          "internalType": "uint256",
          "name": "timestamp",
          "type": "uint256"
        },
        {
          "internalType": "enum SupplyChain.BatchState",
          "name": "state",
          "type": "uint8"
        }
      ],
      "stateMutability": "view",
      "type": "function"
    },
    {
      "inputs": [
        {
          "internalType": "string",
          "name": "_batchId",
          "type": "string"
        },
        {
          "internalType": "string",
          "name": "_ipfsCID",
          "type": "string"
        }
      ],
      "name": "createBatch",
      "outputs": [],
      "stateMutability": "nonpayable",
      "type": "function"
    },
    {
      "inputs": [
        {
          "internalType": "string",
          "name": "_batchId",
          "type": "string"
        }
      ],
      "name": "getBatch",
      "outputs": [
        {
          "components": [
            {
              "internalType": "string",
              "name": "batchId",
              "type": "string"
            },
            {
              "internalType": "address",
              "name": "farmerAddress",
              "type": "address"
            },
            {
              "internalType": "string",
              "name": "ipfsCID",
              "type": "string"
            },
            {
              "internalType": "uint256",
              "name": "timestamp",
              "type": "uint256"
            },
            {
              "internalType": "enum SupplyChain.BatchState",
              "name": "state",
              "type": "uint8"
            }
          ],
          "internalType": "struct SupplyChain.HarvestBatch",
          "name": "",
          "type": "tuple"
        }
      ],
      "stateMutability": "view",
      "type": "function"
    },
    {
      "inputs": [
        {
          "internalType": "address",
          "name": "_account",
          "type": "address"
        },
        {
          "internalType": "enum SupplyChain.Role",
          "name": "_role",
          "type": "uint8"
        }
      ],
      "name": "grantRole",
      "outputs": [],
      "stateMutability": "nonpayable",
      "type": "function"
    },
    {
      "inputs": [
        {
          "internalType": "string",
          "name": "_batchId",
          "type": "string"
        }
      ],
      "name": "markSold",
      "outputs": [],
      "stateMutability": "nonpayable",
      "type": "function"
    },
    {
      "inputs": [
        {
          "internalType": "string",
          "name": "_batchId",
          "type": "string"
        }
      ],
      "name": "receiveAtRetail",
      "outputs": [],
      "stateMutability": "nonpayable",
      "type": "function"
    },
    {
      "inputs": [
        {
          "internalType": "address",
          "name": "",
          "type": "address"
        }
      ],
      "name": "roles",
      "outputs": [
        {
          "internalType": "enum SupplyChain.Role",
          "name": "",
          "type": "uint8"
        }
      ],
      "stateMutability": "view",
      "type": "function"
    },
    {
      "inputs": [
        {
          "internalType": "string",
          "name": "_batchId",
          "type": "string"
        },
        {
          "internalType": "string",
          "name": "_location",
          "type": "string"
        },
        {
          "internalType": "string",
          "name": "_gpsLat",
          "type": "string"
        },
        {
          "internalType": "string",
          "name": "_gpsLong",
          "type": "string"
        }
      ],
      "name": "updateTransit",
      "outputs": [],
      "stateMutability": "nonpayable",
      "type": "function"
    }
  ],
  "bytecode": "0x608060405234801561001057600080fd5b50600080546001600160a01b03191633908117825580825260016020819052604092839020805460ff191682179055915190917faa259565575c834bc07e74dca784b4071676133ac78513b431afb6ee7edae1219161006f919061007c565b60405180910390a26100a4565b602081016005831061009e57634e487b7160e01b600052602160045260246000fd5b91905290565b61146e806100b36000396000f3fe608060405234801561001057600080fd5b506004361061009e5760003560e01c80639937464211610066578063993746421461011e578063cebe80cb1461014e578063e790398814610161578063f851a4401461019f578063f9ca4274146101ca57600080fd5b80633e840236146100a35780637ef1446a146100b85780639036e3b9146100e557806392b8f021146100f8578063951d10291461010b575b600080fd5b6100b66100b1366004610e34565b6101ea565b005b6100cb6100c6366004610f12565b610344565b6040516100dc959493929190610fc9565b60405180910390f35b6100b66100f3366004610f12565b6104a0565b6100b661010636600461101d565b610634565b6100b6610119366004610f12565b610839565b61014161012c366004611081565b60016020526000908152604090205460ff1681565b6040516100dc91906110a3565b6100b661015c3660046110bd565b6109b8565b61018f61016f366004610f12565b805160208183018101805160038252928201919093012091525460ff1681565b60405190151581526020016100dc565b6000546101b2906001600160a01b031681565b6040516001600160a01b0390911681526020016100dc565b6101dd6101d8366004610f12565b610bdf565b6040516100dc919061116a565b60013360009081526001602052604090205460ff16600481111561021057610210610f9f565b146102625760405162461bcd60e51b815260206004820152601960248201527f4163636573732064656e6965643a2061646d696e206f6e6c790000000000000060448201526064015b60405180910390fd5b6001600160a01b0382166102c25760405162461bcd60e51b815260206004820152602160248201527f43616e6e6f74206772616e7420726f6c6520746f207a65726f206164647265736044820152607360f81b6064820152608401610259565b6001600160a01b03821660009081526001602081905260409091208054839260ff19909116908360048111156102fa576102fa610f9f565b0217905550816001600160a01b03167faa259565575c834bc07e74dca784b4071676133ac78513b431afb6ee7edae1218260405161033891906110a3565b60405180910390a25050565b805160208183018101805160028252928201919093012091528054819061036a906111e0565b80601f0160208091040260200160405190810160405280929190818152602001828054610396906111e0565b80156103e35780601f106103b8576101008083540402835291602001916103e3565b820191906000526020600020905b8154815290600101906020018083116103c657829003601f168201915b505050600184015460028501805494956001600160a01b0390921694919350915061040d906111e0565b80601f0160208091040260200160405190810160405280929190818152602001828054610439906111e0565b80156104865780601f1061045b57610100808354040283529160200191610486565b820191906000526020600020905b81548152906001019060200180831161046957829003601f168201915b50505050600383015460049093015491929160ff16905085565b6004803360009081526001602052604090205460ff1660048111156104c7576104c7610f9f565b146104e45760405162461bcd60e51b815260040161025990611214565b816003816040516104f59190611249565b9081526040519081900360200190205460ff166105245760405162461bcd60e51b815260040161025990611265565b60006002846040516105369190611249565b90815260405190819003602001902090506001600482015460ff16600381111561056257610562610f9f565b146105c45760405162461bcd60e51b815260206004820152602c60248201527f4261746368206d75737420626520496e5472616e73697420746f20726563656960448201526b1d9948185d081c995d185a5b60a21b6064820152608401610259565b60048101805460ff19811660021790915560405160ff909116906105e9908690611249565b60405180910390207fe32566d1119c5cb22e8b0ce0e399d2af2732c0ee73614a0c564092b0cd1d4fe38260024260405161062593929190611293565b60405180910390a25050505050565b6002803360009081526001602052604090205460ff16600481111561065b5761065b610f9f565b146106785760405162461bcd60e51b815260040161025990611214565b6003836040516106889190611249565b9081526040519081900360200190205460ff16156106e85760405162461bcd60e51b815260206004820152601760248201527f426174636820494420616c7265616479206578697374730000000000000000006044820152606401610259565b6040805160a08101825284815233602082015280820184905242606082015260006080820152905160029061071e908690611249565b9081526040519081900360200190208151819061073b908261130b565b5060208201516001820180546001600160a01b0319166001600160a01b0390921691909117905560408201516002820190610776908261130b565b506060820151816003015560808201518160040160006101000a81548160ff021916908360038111156107ab576107ab610f9f565b021790555090505060016003846040516107c59190611249565b908152604051908190036020018120805492151560ff199093169290921790915533906107f3908590611249565b60405180910390207fe117b3a2e142edbc5f3f6363df217c955063489bde1b9abfe8b427ec70a25e96844260405161082c9291906113cb565b60405180910390a3505050565b6004803360009081526001602052604090205460ff16600481111561086057610860610f9f565b1461087d5760405162461bcd60e51b815260040161025990611214565b8160038160405161088e9190611249565b9081526040519081900360200190205460ff166108bd5760405162461bcd60e51b815260040161025990611265565b60006002846040516108cf9190611249565b90815260405190819003602001902090506002600482015460ff1660038111156108fb576108fb610f9f565b146109575760405162461bcd60e51b815260206004820152602660248201527f4261746368206d75737420626520417452657461696c20746f206d61726b20616044820152651cc81cdbdb1960d21b6064820152608401610259565b60048101805460ff19811660031790915560405160ff9091169061097c908690611249565b60405180910390207fe32566d1119c5cb22e8b0ce0e399d2af2732c0ee73614a0c564092b0cd1d4fe38260034260405161062593929190611293565b6003803360009081526001602052604090205460ff1660048111156109df576109df610f9f565b146109fc5760405162461bcd60e51b815260040161025990611214565b84600381604051610a0d9190611249565b9081526040519081900360200190205460ff16610a3c5760405162461bcd60e51b815260040161025990611265565b6000600287604051610a4e9190611249565b90815260405190819003602001902090506000600482015460ff166003811115610a7a57610a7a610f9f565b1480610a9e57506001600482015460ff166003811115610a9c57610a9c610f9f565b145b610af65760405162461bcd60e51b815260206004820152602360248201527f4261746368206973206e6f7420696e2061207472616e73697461626c6520737460448201526261746560e81b6064820152608401610259565b6000600482015460ff166003811115610b1157610b11610f9f565b03610b815760048101805460ff19811660011790915560405160ff90911690610b3b908990611249565b60405180910390207fe32566d1119c5cb22e8b0ce0e399d2af2732c0ee73614a0c564092b0cd1d4fe382600142604051610b7793929190611293565b60405180910390a2505b6040513390610b91908990611249565b60405180910390207f6a2d2720794c70d3ffa4fcdbc9c0b493b56cb758e7b881e7bbfd2b0de19fecf888888842604051610bce94939291906113ed565b60405180910390a350505050505050565b610be7610dd0565b81600381604051610bf89190611249565b9081526040519081900360200190205460ff16610c275760405162461bcd60e51b815260040161025990611265565b600283604051610c379190611249565b90815260200160405180910390206040518060a0016040529081600082018054610c60906111e0565b80601f0160208091040260200160405190810160405280929190818152602001828054610c8c906111e0565b8015610cd95780601f10610cae57610100808354040283529160200191610cd9565b820191906000526020600020905b815481529060010190602001808311610cbc57829003601f168201915b505050918352505060018201546001600160a01b03166020820152600282018054604090920191610d09906111e0565b80601f0160208091040260200160405190810160405280929190818152602001828054610d35906111e0565b8015610d825780601f10610d5757610100808354040283529160200191610d82565b820191906000526020600020905b815481529060010190602001808311610d6557829003601f168201915b50505091835250506003828101546020830152600483015460409092019160ff1690811115610db357610db3610f9f565b6003811115610dc457610dc4610f9f565b90525091505b50919050565b6040518060a001604052806060815260200160006001600160a01b03168152602001606081526020016000815260200160006003811115610e1357610e13610f9f565b905290565b80356001600160a01b0381168114610e2f57600080fd5b919050565b60008060408385031215610e4757600080fd5b610e5083610e18565b9150602083013560058110610e6457600080fd5b809150509250929050565b634e487b7160e01b600052604160045260246000fd5b600082601f830112610e9657600080fd5b813567ffffffffffffffff80821115610eb157610eb1610e6f565b604051601f8301601f19908116603f01168101908282118183101715610ed957610ed9610e6f565b81604052838152866020858801011115610ef257600080fd5b836020870160208301376000602085830101528094505050505092915050565b600060208284031215610f2457600080fd5b813567ffffffffffffffff811115610f3b57600080fd5b610f4784828501610e85565b949350505050565b60005b83811015610f6a578181015183820152602001610f52565b50506000910152565b60008151808452610f8b816020860160208601610f4f565b601f01601f19169290920160200192915050565b634e487b7160e01b600052602160045260246000fd5b60048110610fc557610fc5610f9f565b9052565b60a081526000610fdc60a0830188610f73565b6001600160a01b03871660208401528281036040840152610ffd8187610f73565b9150508360608301526110136080830184610fb5565b9695505050505050565b6000806040838503121561103057600080fd5b823567ffffffffffffffff8082111561104857600080fd5b61105486838701610e85565b9350602085013591508082111561106a57600080fd5b5061107785828601610e85565b9150509250929050565b60006020828403121561109357600080fd5b61109c82610e18565b9392505050565b60208101600583106110b7576110b7610f9f565b91905290565b600080600080608085870312156110d357600080fd5b843567ffffffffffffffff808211156110eb57600080fd5b6110f788838901610e85565b9550602087013591508082111561110d57600080fd5b61111988838901610e85565b9450604087013591508082111561112f57600080fd5b61113b88838901610e85565b9350606087013591508082111561115157600080fd5b5061115e87828801610e85565b91505092959194509250565b602081526000825160a0602084015261118660c0840182610f73565b60208501516001600160a01b0316604085810191909152850151848203601f190160608601529091506111b98282610f73565b9150506060840151608084015260808401516111d860a0850182610fb5565b509392505050565b600181811c908216806111f457607f821691505b602082108103610dca57634e487b7160e01b600052602260045260246000fd5b6020808252818101527f4163636573732064656e6965643a20696e73756666696369656e7420726f6c65604082015260600190565b6000825161125b818460208701610f4f565b9190910192915050565b60208082526014908201527310985d18da08191bd95cc81b9bdd08195e1a5cdd60621b604082015260600190565b606081016112a18286610fb5565b6112ae6020830185610fb5565b826040830152949350505050565b601f82111561130657600081815260208120601f850160051c810160208610156112e35750805b601f850160051c820191505b81811015611302578281556001016112ef565b5050505b505050565b815167ffffffffffffffff81111561132557611325610e6f565b6113398161133384546111e0565b846112bc565b602080601f83116001811461136e57600084156113565750858301515b600019600386901b1c1916600185901b178555611302565b600085815260208120601f198616915b8281101561139d5788860151825594840194600190910190840161137e565b50858210156113bb5787850151600019600388901b60f8161c191681555b5050505050600190811b01905550565b6040815260006113de6040830185610f73565b90508260208301529392505050565b6080815260006114006080830187610f73565b82810360208401526114128187610f73565b905082810360408401526114268186610f73565b9150508260608301529594505050505056fea264697066735822122030aacbb26ed3b9fcd6964c1385edc9e85719574350fa9b00b11054dccd20ac3764736f6c63430008140033",
  "linkReferences": {},
  "deployedLinkReferences": {}
}